{
  "contractName": "ParseProof",
  "abi": [
    {
      "constant": false,
      "inputs": [
        {
          "name": "proof",
          "type": "bytes"
        }
      ],
      "name": "parseProof",
      "outputs": [
        {
          "name": "sig_r",
          "type": "uint256"
        },
        {
          "name": "sig_s",
          "type": "uint256"
        },
        {
          "name": "hashchain",
          "type": "bytes32"
        }
      ],
      "payable": false,
      "stateMutability": "nonpayable",
      "type": "function"
    }
  ],
  "bytecode": "0x6060604052341561000f57600080fd5b61084d8061001e6000396000f300606060405260043610610041576000357c0100000000000000000000000000000000000000000000000000000000900463ffffffff168063793deea314610046575b600080fd5b610096600480803590602001908201803590602001908080601f016020809104026020016040519081016040528093929190818152602001838380828437820191505050505050919050506100c2565b604051808481526020018381526020018260001916600019168152602001935050505060405180910390f35b60008060008060008060006100d561080d565b60008060008060008060009a5060288f0151995060208b019a5060408f01519d5060608f01519c5060408b019a508e601b81518110151561011257fe5b9060200101517f010000000000000000000000000000000000000000000000000000000000000090047f0100000000000000000000000000000000000000000000000000000000000000027f01000000000000000000000000000000000000000000000000000000000000009004610100028f601a81518110151561019357fe5b9060200101517f010000000000000000000000000000000000000000000000000000000000000090047f0100000000000000000000000000000000000000000000000000000000000000027f01000000000000000000000000000000000000000000000000000000000000009004018b019a50600094505b8e600781518110151561021a57fe5b9060200101517f010000000000000000000000000000000000000000000000000000000000000090047f0100000000000000000000000000000000000000000000000000000000000000027f01000000000000000000000000000000000000000000000000000000000000009004610100028f600681518110151561029b57fe5b9060200101517f010000000000000000000000000000000000000000000000000000000000000090047f0100000000000000000000000000000000000000000000000000000000000000027f010000000000000000000000000000000000000000000000000000000000000090040161ffff168561ffff1610156106fd5760218b018f0151985088600160028110151561033157fe5b1a7f0100000000000000000000000000000000000000000000000000000000000000027f010000000000000000000000000000000000000000000000000000000000000090046101000289600060028110151561038a57fe5b1a7f0100000000000000000000000000000000000000000000000000000000000000027f010000000000000000000000000000000000000000000000000000000000000090040193508e60038c0161ffff168151811015156103e857fe5b9060200101517f010000000000000000000000000000000000000000000000000000000000000090047f010000000000000000000000000000000000000000000000000000000000000002975060048b019a508a8f019650838752602084018b018f015195506002868860008c8c60006040516020015260405180866fffffffffffffffffffffffffffffffff19166fffffffffffffffffffffffffffffffff1916815260100185805190602001908083835b6020831015156104c0578051825260208201915060208101905060208303925061049b565b6001836020036101000a0380198251168184511680821785525050505050509050018460ff1660ff167f0100000000000000000000000000000000000000000000000000000000000000028152600101837dffffffffffffffffffffffffffffffffffffffffffffffffffffffffffff19167dffffffffffffffffffffffffffffffffffffffffffffffffffffffffffff19168152600201827effffffffffffffffffffffffffffffffffffffffffffffffffffffffffffff19167effffffffffffffffffffffffffffffffffffffffffffffffffffffffffffff191681526001019550505050505060206040518083038160008661646e5a03f115156105c657600080fd5b505060405180519050925060008561ffff16141561065d576002600184600060405160200152604051808360ff1660ff167f010000000000000000000000000000000000000000000000000000000000000002815260010182600019166000191681526020019250505060206040518083038160008661646e5a03f1151561064d57600080fd5b5050604051805190509b506106e8565b600260018d85600060405160200152604051808460ff1660ff167f010000000000000000000000000000000000000000000000000000000000000002815260010183600019166000191681526020018260001916600019168152602001935050505060206040518083038160008661646e5a03f115156106dc57600080fd5b5050604051805190509b505b601084018b019a50848060010195505061020b565b60228f015191506304000000905060028c8b8484600060405160200152604051808560001916600019168152602001846fffffffffffffffffffffffffffffffff19166fffffffffffffffffffffffffffffffff19168152601001837bffffffffffffffffffffffffffffffffffffffffffffffffffffffff19167bffffffffffffffffffffffffffffffffffffffffffffffffffffffff191681526004018263ffffffff1663ffffffff167c010000000000000000000000000000000000000000000000000000000002815260040194505050505060206040518083038160008661646e5a03f115156107f057600080fd5b5050604051805190509b5050505050505050505050509193909250565b6020604051908101604052806000815250905600a165627a7a72305820d20f5bdbc1b4a1776d75ae1887f1ec7b61ec86dddf936dfe39eadd69842463350029",
  "source": "pragma solidity ^0.4.1;\n\n// For 64-byte ECC proofs with SHA256\nlibrary ParseProof {\n\n  // Parses the provided proof and returns the signature parts and the evidence hash\n  function parseProof(bytes memory proof) public returns(uint256 sig_r, uint256 sig_s, bytes32 hashchain) {\n\n    uint16 readPos = 0; // Initialize index in proof bytes array\n    bytes16 times; // Contains Timestamps for signature validation\n\t  bytes2 len_record; // Length of the record\n\t  bytes1 generator_originated; // Boolean whether originated by generator\n\t  bytes memory chunk; // One chunk for hashing\n\t  bytes16 saltsecret; // Salt secret from proof\n\n    // Parse times\n    assembly {\n      times := mload(add(proof, 40))\n    }\n    readPos += 32; //update readPos, skip parameters\n\n    assembly {\n        sig_r := mload(add(proof,64))\n        sig_s := mload(add(proof,96))\n\t    readPos := add(readPos, 64)\n    }\n\n    // Skipping the certificate chain\n    readPos += uint16(proof[26])+256*uint16(proof[27]);\n\n    // Parse one record after another ( i < num_proof_nodes )\n    for(uint16 i = 0; i < uint16(proof[6])+256*uint16(proof[7]); i++){\n  \t\t// Get the Record length as a byte array\n  \t\tassembly { len_record := mload(add(proof,add(readPos,33))) }\n  \t\t// Convert the record length into a number\n  \t\tuint16 tmplen = uint16(len_record[0])+256*uint16(len_record[1]);\n  \t\t// Parse generator information\n  \t\tgenerator_originated = proof[readPos+3];\n  \t\t// Update readPos\n  \t\treadPos += 4;\n  \t\t// Set chunk pointer\n  \t\tassembly { chunk := add(proof,readPos) }\n  \t\t// Set length of chunks\n  \t\tassembly { mstore(chunk, tmplen) }\n  \t\t// Load saltsecret\n  \t\tassembly { saltsecret := mload(add(proof,add(readPos,add(tmplen,32)))) }\n  \t\t// Root hash\n  \t\tbytes32 hash = sha256(saltsecret,chunk,uint8(0),len_record,generator_originated);\n  \t\t// Hash chain\n  \t\tif(i == 0){\n  \t\t\thashchain = sha256(uint8(1),hash);\n  \t\t}else{\n  \t\t\thashchain = sha256(uint8(1),hashchain,hash);\n  \t\t}\n  \t\t// Jump over record and salt secret\n  \t\treadPos += tmplen + 16;\n  \t}\n\t\t// Compute Evidence Hash\n\t\t// Load chunk size and salt size\n\t\tbytes4 test; // Temporarily contains salt size and chunk size\n\t\tassembly { test := mload(add(proof,34)) }\n\t\t// Compute final hash chain\n    uint32 num = 0x04000000;\n\t\thashchain = sha256(hashchain, times, test, num);\n    }\n}\n",
  "sourcePath": "/home/mohammed/dev/imperial/BettingDapp/installed_contracts/ParseProof.sol",
  "compiler": {
    "name": "solc",
    "version": "0.4.18+commit.9cf6e910.Emscripten.clang"
  },
  "schemaVersion": "1.0.1",
  "updatedAt": "2018-04-08T21:02:00.748Z"
}