{
  "contractName": "VerifyProof",
  "abi": [
    {
      "constant": false,
      "inputs": [
        {
          "name": "proof",
          "type": "bytes"
        },
        {
          "name": "qx",
          "type": "uint256"
        },
        {
          "name": "qy",
          "type": "uint256"
        }
      ],
      "name": "verifyProof",
      "outputs": [
        {
          "name": "",
          "type": "bool"
        }
      ],
      "payable": false,
      "stateMutability": "nonpayable",
      "type": "function"
    },
    {
      "constant": false,
      "inputs": [
        {
          "name": "proof",
          "type": "bytes"
        }
      ],
      "name": "verifyProof",
      "outputs": [
        {
          "name": "",
          "type": "bool"
        }
      ],
      "payable": false,
      "stateMutability": "nonpayable",
      "type": "function"
    }
  ],
  "bytecode": "0x6060604052341561000f57600080fd5b6103978061001e6000396000f30060606040526004361061004c576000357c0100000000000000000000000000000000000000000000000000000000900463ffffffff1680635569909f1461005157806355c265fe146100cd575b600080fd5b6100b3600480803590602001908201803590602001908080601f01602080910402602001604051908101604052809392919081815260200183838082843782019150505050505091908035906020019091908035906020019091905050610137565b604051808215151515815260200191505060405180910390f35b61011d600480803590602001908201803590602001908080601f0160208091040260200160405190810160405280939291908181526020018383808284378201915050505050509190505061030c565b604051808215151515815260200191505060405180910390f35b600080600080600073__ParseProof____________________________63793deea3896000604051606001526040518263ffffffff167c01000000000000000000000000000000000000000000000000000000000281526004018080602001828103825283818151815260200191508051906020019080838360005b838110156101ce5780820151818401526020810190506101b3565b50505050905090810190601f1680156101fb5780820380516001836020036101000a031916815260200191505b509250505060606040518083038186803b151561021757600080fd5b6102c65a03f4151561022857600080fd5b505050604051805190602001805190602001805190508096508193508294505050508360019004925073__ECMath________________________________63d2689abc88888686866000604051602001526040518663ffffffff167c0100000000000000000000000000000000000000000000000000000000028152600401808681526020018581526020018481526020018381526020018281526020019550505050505060206040518083038186803b15156102e457600080fd5b6102c65a03f415156102f557600080fd5b505050604051805190509450505050509392505050565b60008060007fd1a5bb464bdcedfaed55610d4bc6d0683ecb87a9bb57c1849a84810c4877a65891507fb646431a722873a1626bddbb19d111a19045d4909a9da45d7d55de77a5e98f039050610362848383610137565b925050509190505600a165627a7a723058201e0059a54a34d6559d60d59251c80fbbfa93d4bdc7ddbbb079a76a0ecdf226cd0029",
  "source": "pragma solidity ^0.4.8;\n\nimport \"./ECMath.sol\";\nimport \"./ParseProof.sol\";\n\nlibrary VerifyProof {\n\n\n  function verifyProof(bytes memory proof) public returns(bool) {\n    uint256 qx = 0xd1a5bb464bdcedfaed55610d4bc6d0683ecb87a9bb57c1849a84810c4877a658; //public key x-coordinate signer\n    uint256 qy = 0xb646431a722873a1626bddbb19d111a19045d4909a9da45d7d55de77a5e98f03; //public key y-coordinate signer\n    return verifyProof(proof, qx, qy);\n  }\n\n  function verifyProof(bytes memory proof, uint256 qx, uint256 qy) public returns(bool) {\n    bytes32 m; // Evidence Hash in bytes32\n    uint256 e; // Evidence Hash in uint256\n    uint256 sig_r; //signature parameter\n    uint256 sig_s; //signature parameter\n\n\t   // Returns ECC signature parts and the evidence hash\n    (sig_r, sig_s, m) = ParseProof.parseProof(proof);\n\n    // Convert evidence hash to uint\n\t  e = uint256(m);\n\n    // Verify signature\n    return ECMath.ecdsaverify(qx, qy, e, sig_r, sig_s);\n\n  }\n\n}\n",
  "sourcePath": "/home/mohammed/dev/imperial/BettingDapp/installed_contracts/VerifyProof.sol",
  "compiler": {
    "name": "solc",
    "version": "0.4.18+commit.9cf6e910.Emscripten.clang"
  },
  "schemaVersion": "1.0.1",
  "updatedAt": "2018-04-08T21:02:00.756Z"
}